{"abi":[{"type":"constructor","inputs":[{"name":"initialOwner","type":"address","internalType":"address"}],"stateMutability":"nonpayable"},{"type":"function","name":"IID_IERC5192","inputs":[],"outputs":[{"name":"","type":"bytes4","internalType":"bytes4"}],"stateMutability":"view"},{"type":"function","name":"REVEAL_TIMESTAMP","inputs":[],"outputs":[{"name":"","type":"uint256","internalType":"uint256"}],"stateMutability":"view"},{"type":"function","name":"balanceOf","inputs":[{"name":"account","type":"address","internalType":"address"},{"name":"id","type":"uint256","internalType":"uint256"}],"outputs":[{"name":"","type":"uint256","internalType":"uint256"}],"stateMutability":"view"},{"type":"function","name":"balanceOfBatch","inputs":[{"name":"accounts","type":"address[]","internalType":"address[]"},{"name":"ids","type":"uint256[]","internalType":"uint256[]"}],"outputs":[{"name":"","type":"uint256[]","internalType":"uint256[]"}],"stateMutability":"view"},{"type":"function","name":"getNextSerialNumber","inputs":[{"name":"teamId","type":"uint256","internalType":"uint256"}],"outputs":[{"name":"","type":"uint256","internalType":"uint256"}],"stateMutability":"view"},{"type":"function","name":"getSerialNumber","inputs":[{"name":"tokenId","type":"uint256","internalType":"uint256"}],"outputs":[{"name":"","type":"uint256","internalType":"uint256"}],"stateMutability":"pure"},{"type":"function","name":"getTeamId","inputs":[{"name":"tokenId","type":"uint256","internalType":"uint256"}],"outputs":[{"name":"","type":"uint256","internalType":"uint256"}],"stateMutability":"pure"},{"type":"function","name":"hasMintedForTeam","inputs":[{"name":"account","type":"address","internalType":"address"},{"name":"teamId","type":"uint256","internalType":"uint256"}],"outputs":[{"name":"","type":"bool","internalType":"bool"}],"stateMutability":"view"},{"type":"function","name":"isApprovedForAll","inputs":[{"name":"account","type":"address","internalType":"address"},{"name":"operator","type":"address","internalType":"address"}],"outputs":[{"name":"","type":"bool","internalType":"bool"}],"stateMutability":"view"},{"type":"function","name":"isRevealed","inputs":[],"outputs":[{"name":"","type":"bool","internalType":"bool"}],"stateMutability":"view"},{"type":"function","name":"locked","inputs":[{"name":"tokenId","type":"uint256","internalType":"uint256"}],"outputs":[{"name":"","type":"bool","internalType":"bool"}],"stateMutability":"view"},{"type":"function","name":"mintLocked","inputs":[{"name":"to","type":"address","internalType":"address"},{"name":"teamId","type":"uint256","internalType":"uint256"},{"name":"amount","type":"uint256","internalType":"uint256"},{"name":"data","type":"bytes","internalType":"bytes"}],"outputs":[],"stateMutability":"nonpayable"},{"type":"function","name":"mintLockedWithURI","inputs":[{"name":"to","type":"address","internalType":"address"},{"name":"teamId","type":"uint256","internalType":"uint256"},{"name":"amount","type":"uint256","internalType":"uint256"},{"name":"data","type":"bytes","internalType":"bytes"},{"name":"tokenURI_","type":"string","internalType":"string"}],"outputs":[],"stateMutability":"nonpayable"},{"type":"function","name":"owner","inputs":[],"outputs":[{"name":"","type":"address","internalType":"address"}],"stateMutability":"view"},{"type":"function","name":"renounceOwnership","inputs":[],"outputs":[],"stateMutability":"nonpayable"},{"type":"function","name":"safeBatchTransferFrom","inputs":[{"name":"from","type":"address","internalType":"address"},{"name":"to","type":"address","internalType":"address"},{"name":"ids","type":"uint256[]","internalType":"uint256[]"},{"name":"values","type":"uint256[]","internalType":"uint256[]"},{"name":"data","type":"bytes","internalType":"bytes"}],"outputs":[],"stateMutability":"nonpayable"},{"type":"function","name":"safeTransferFrom","inputs":[{"name":"from","type":"address","internalType":"address"},{"name":"to","type":"address","internalType":"address"},{"name":"id","type":"uint256","internalType":"uint256"},{"name":"value","type":"uint256","internalType":"uint256"},{"name":"data","type":"bytes","internalType":"bytes"}],"outputs":[],"stateMutability":"nonpayable"},{"type":"function","name":"setApprovalForAll","inputs":[{"name":"operator","type":"address","internalType":"address"},{"name":"approved","type":"bool","internalType":"bool"}],"outputs":[],"stateMutability":"nonpayable"},{"type":"function","name":"setRevealedBaseURI","inputs":[{"name":"baseURI","type":"string","internalType":"string"}],"outputs":[],"stateMutability":"nonpayable"},{"type":"function","name":"setTokenURI","inputs":[{"name":"tokenId","type":"uint256","internalType":"uint256"},{"name":"tokenURI_","type":"string","internalType":"string"}],"outputs":[],"stateMutability":"nonpayable"},{"type":"function","name":"setUnrevealedBaseURI","inputs":[{"name":"baseURI","type":"string","internalType":"string"}],"outputs":[],"stateMutability":"nonpayable"},{"type":"function","name":"supportsInterface","inputs":[{"name":"interfaceId","type":"bytes4","internalType":"bytes4"}],"outputs":[{"name":"","type":"bool","internalType":"bool"}],"stateMutability":"view"},{"type":"function","name":"transferOwnership","inputs":[{"name":"newOwner","type":"address","internalType":"address"}],"outputs":[],"stateMutability":"nonpayable"},{"type":"function","name":"uri","inputs":[{"name":"tokenId","type":"uint256","internalType":"uint256"}],"outputs":[{"name":"","type":"string","internalType":"string"}],"stateMutability":"view"},{"type":"event","name":"ApprovalForAll","inputs":[{"name":"account","type":"address","indexed":true,"internalType":"address"},{"name":"operator","type":"address","indexed":true,"internalType":"address"},{"name":"approved","type":"bool","indexed":false,"internalType":"bool"}],"anonymous":false},{"type":"event","name":"Locked","inputs":[{"name":"tokenId","type":"uint256","indexed":false,"internalType":"uint256"}],"anonymous":false},{"type":"event","name":"OwnershipTransferred","inputs":[{"name":"previousOwner","type":"address","indexed":true,"internalType":"address"},{"name":"newOwner","type":"address","indexed":true,"internalType":"address"}],"anonymous":false},{"type":"event","name":"TransferBatch","inputs":[{"name":"operator","type":"address","indexed":true,"internalType":"address"},{"name":"from","type":"address","indexed":true,"internalType":"address"},{"name":"to","type":"address","indexed":true,"internalType":"address"},{"name":"ids","type":"uint256[]","indexed":false,"internalType":"uint256[]"},{"name":"values","type":"uint256[]","indexed":false,"internalType":"uint256[]"}],"anonymous":false},{"type":"event","name":"TransferSingle","inputs":[{"name":"operator","type":"address","indexed":true,"internalType":"address"},{"name":"from","type":"address","indexed":true,"internalType":"address"},{"name":"to","type":"address","indexed":true,"internalType":"address"},{"name":"id","type":"uint256","indexed":false,"internalType":"uint256"},{"name":"value","type":"uint256","indexed":false,"internalType":"uint256"}],"anonymous":false},{"type":"event","name":"URI","inputs":[{"name":"value","type":"string","indexed":false,"internalType":"string"},{"name":"id","type":"uint256","indexed":true,"internalType":"uint256"}],"anonymous":false},{"type":"event","name":"Unlocked","inputs":[{"name":"tokenId","type":"uint256","indexed":false,"internalType":"uint256"}],"anonymous":false},{"type":"error","name":"ERC1155InsufficientBalance","inputs":[{"name":"sender","type":"address","internalType":"address"},{"name":"balance","type":"uint256","internalType":"uint256"},{"name":"needed","type":"uint256","internalType":"uint256"},{"name":"tokenId","type":"uint256","internalType":"uint256"}]},{"type":"error","name":"ERC1155InvalidApprover","inputs":[{"name":"approver","type":"address","internalType":"address"}]},{"type":"error","name":"ERC1155InvalidArrayLength","inputs":[{"name":"idsLength","type":"uint256","internalType":"uint256"},{"name":"valuesLength","type":"uint256","internalType":"uint256"}]},{"type":"error","name":"ERC1155InvalidOperator","inputs":[{"name":"operator","type":"address","internalType":"address"}]},{"type":"error","name":"ERC1155InvalidReceiver","inputs":[{"name":"receiver","type":"address","internalType":"address"}]},{"type":"error","name":"ERC1155InvalidSender","inputs":[{"name":"sender","type":"address","internalType":"address"}]},{"type":"error","name":"ERC1155MissingApprovalForAll","inputs":[{"name":"operator","type":"address","internalType":"address"},{"name":"owner","type":"address","internalType":"address"}]},{"type":"error","name":"OwnableInvalidOwner","inputs":[{"name":"owner","type":"address","internalType":"address"}]},{"type":"error","name":"OwnableUnauthorizedAccount","inputs":[{"name":"account","type":"address","internalType":"address"}]}],"bytecode":{"object":"0x608060405234801561000f575f5ffd5b5060405161426938038061426983398181016040528101906100319190610232565b806040518060400160405280601f81526020017f687474703a2f2f6c6f63616c686f73743a383030302f7b69647d2e6a736f6e00815250610077816100fe60201b60201c565b505f73ffffffffffffffffffffffffffffffffffffffff168173ffffffffffffffffffffffffffffffffffffffff16036100e8575f6040517f1e4fbdf70000000000000000000000000000000000000000000000000000000081526004016100df919061026c565b60405180910390fd5b6100f78161011160201b60201c565b5050610591565b806002908161010d91906104c2565b5050565b5f60035f9054906101000a900473ffffffffffffffffffffffffffffffffffffffff1690508160035f6101000a81548173ffffffffffffffffffffffffffffffffffffffff021916908373ffffffffffffffffffffffffffffffffffffffff1602179055508173ffffffffffffffffffffffffffffffffffffffff168173ffffffffffffffffffffffffffffffffffffffff167f8be0079c531659141344cd1fd0a4f28419497f9722a3daafe3b4186f6b6457e060405160405180910390a35050565b5f5ffd5b5f73ffffffffffffffffffffffffffffffffffffffff82169050919050565b5f610201826101d8565b9050919050565b610211816101f7565b811461021b575f5ffd5b50565b5f8151905061022c81610208565b92915050565b5f60208284031215610247576102466101d4565b5b5f6102548482850161021e565b91505092915050565b610266816101f7565b82525050565b5f60208201905061027f5f83018461025d565b92915050565b5f81519050919050565b7f4e487b71000000000000000000000000000000000000000000000000000000005f52604160045260245ffd5b7f4e487b71000000000000000000000000000000000000000000000000000000005f52602260045260245ffd5b5f600282049050600182168061030057607f821691505b602082108103610313576103126102bc565b5b50919050565b5f819050815f5260205f209050919050565b5f6020601f8301049050919050565b5f82821b905092915050565b5f600883026103757fffffffffffffffffffffffffffffffffffffffffffffffffffffffffffffffff8261033a565b61037f868361033a565b95508019841693508086168417925050509392505050565b5f819050919050565b5f819050919050565b5f6103c36103be6103b984610397565b6103a0565b610397565b9050919050565b5f819050919050565b6103dc836103a9565b6103f06103e8826103ca565b848454610346565b825550505050565b5f5f905090565b6104076103f8565b6104128184846103d3565b505050565b5b818110156104355761042a5f826103ff565b600181019050610418565b5050565b601f82111561047a5761044b81610319565b6104548461032b565b81016020851015610463578190505b61047761046f8561032b565b830182610417565b50505b505050565b5f82821c905092915050565b5f61049a5f198460080261047f565b1980831691505092915050565b5f6104b2838361048b565b9150826002028217905092915050565b6104cb82610285565b67ffffffffffffffff8111156104e4576104e361028f565b5b6104ee82546102e9565b6104f9828285610439565b5f60209050601f83116001811461052a575f8415610518578287015190505b61052285826104a7565b865550610589565b601f19841661053886610319565b5f5b8281101561055f5784890151825560018201915060208501945060208101905061053a565b8683101561057c5784890151610578601f89168261048b565b8355505b6001600288020188555050505b505050505050565b613ccb8061059e5f395ff3fe608060405234801561000f575f5ffd5b5060043610610155575f3560e01c80636e83843a116100c1578063b1141f631161007a578063b1141f63146103e7578063b45a3c0e14610403578063e185a2cc14610433578063e985e9c51461044f578063f242432a1461047f578063f2fde38b1461049b57610155565b80636e83843a14610327578063715018a614610343578063794285701461034d5780638da5cb5b1461037d5780639bd905f81461039b578063a22cb465146103cb57610155565b80632eb2c2d6116101135780632eb2c2d614610253578063358c4d801461026f578063499fca181461028d5780634e1273f4146102bd57806354214f69146102ed578063545779871461030b57610155565b8062fdd58e1461015957806301ffc9a714610189578063062c17dd146101b95780630e89341c146101e9578063162094c41461021957806318e20a3814610235575b5f5ffd5b610173600480360381019061016e91906124a8565b6104b7565b60405161018091906124f5565b60405180910390f35b6101a3600480360381019061019e9190612563565b61050c565b6040516101b091906125a8565b60405180910390f35b6101d360048036038101906101ce91906125c1565b61056c565b6040516101e091906124f5565b60405180910390f35b61020360048036038101906101fe91906125c1565b610592565b604051610210919061265c565b60405180910390f35b610233600480360381019061022e91906127a8565b610743565b005b61023d6107b6565b60405161024a91906124f5565b60405180910390f35b61026d60048036038101906102689190612964565b6107be565b005b610277610865565b6040516102849190612a3e565b60405180910390f35b6102a760048036038101906102a291906124a8565b610870565b6040516102b491906125a8565b60405180910390f35b6102d760048036038101906102d29190612b17565b6108c4565b6040516102e49190612c44565b60405180910390f35b6102f56109ce565b60405161030291906125a8565b60405180910390f35b61032560048036038101906103209190612c64565b6109dc565b005b610341600480360381019061033c9190612ce4565b610c3f565b005b61034b610c5a565b005b610367600480360381019061036291906125c1565b610c6d565b60405161037491906124f5565b60405180910390f35b610385610c83565b6040516103929190612d3a565b60405180910390f35b6103b560048036038101906103b091906125c1565b610cab565b6040516103c291906124f5565b60405180910390f35b6103e560048036038101906103e09190612d7d565b610cc1565b005b61040160048036038101906103fc9190612dbb565b610cd7565b005b61041d600480360381019061041891906125c1565b610eb9565b60405161042a91906125a8565b60405180910390f35b61044d60048036038101906104489190612ce4565b610f27565b005b61046960048036038101906104649190612e6a565b610f42565b60405161047691906125a8565b60405180910390f35b61049960048036038101906104949190612ea8565b610fd0565b005b6104b560048036038101906104b09190612f3b565b611077565b005b5f5f5f8381526020019081526020015f205f8473ffffffffffffffffffffffffffffffffffffffff1673ffffffffffffffffffffffffffffffffffffffff1681526020019081526020015f2054905092915050565b5f63b45a3c0e60e01b7bffffffffffffffffffffffffffffffffffffffffffffffffffffffff1916827bffffffffffffffffffffffffffffffffffffffffffffffffffffffff191614806105655750610564826110fb565b5b9050919050565b5f600160055f8481526020019081526020015f205461058b9190612f93565b9050919050565b60605f60075f8481526020019081526020015f2080546105b190612ff3565b905011156106585760075f8381526020019081526020015f2080546105d590612ff3565b80601f016020809104026020016040519081016040528092919081815260200182805461060190612ff3565b801561064c5780601f106106235761010080835404028352916020019161064c565b820191905f5260205f20905b81548152906001019060200180831161062f57829003601f168201915b5050505050905061073e565b5f61066283610c6d565b90505f61066e84610cab565b90506106786109ce565b1561070e57600282036106d0575f61068f856111dc565b9050600961069c83611220565b6106a583611220565b6040516020016106b7939291906131cd565b604051602081830303815290604052935050505061073e565b60096106db83611220565b6106e483611220565b6040516020016106f693929190613268565b6040516020818303038152906040529250505061073e565b600861071983611220565b60405160200161072a9291906132ae565b604051602081830303815290604052925050505b919050565b61074b6112ea565b61075482611371565b610793576040517f08c379a000000000000000000000000000000000000000000000000000000000815260040161078a9061334c565b60405180910390fd5b8060075f8481526020019081526020015f2090816107b191906134f8565b505050565b636774858081565b5f6107c7611397565b90508073ffffffffffffffffffffffffffffffffffffffff168673ffffffffffffffffffffffffffffffffffffffff161415801561080c575061080a8682610f42565b155b156108505780866040517fe237d9220000000000000000000000000000000000000000000000000000000081526004016108479291906135c7565b60405180910390fd5b61085d868686868661139e565b505050505050565b63b45a3c0e60e01b81565b5f5f8383604051602001610885929190613653565b60405160208183030381529060405280519060200120905060065f8281526020019081526020015f205f9054906101000a900460ff1691505092915050565b6060815183511461091057815183516040517f5b05999100000000000000000000000000000000000000000000000000000000815260040161090792919061367e565b60405180910390fd5b5f835167ffffffffffffffff81111561092c5761092b612684565b5b60405190808252806020026020018201604052801561095a5781602001602082028036833780820191505090505b5090505f5f90505b84518110156109c357610999610981828761149290919063ffffffff16565b61099483876114a590919063ffffffff16565b6104b7565b8282815181106109ac576109ab6136a5565b5b602002602001018181525050806001019050610962565b508091505092915050565b5f6367748580421015905090565b6109e4610c83565b73ffffffffffffffffffffffffffffffffffffffff163373ffffffffffffffffffffffffffffffffffffffff1614610a85573373ffffffffffffffffffffffffffffffffffffffff168473ffffffffffffffffffffffffffffffffffffffff1614610a84576040517f08c379a0000000000000000000000000000000000000000000000000000000008152600401610a7b90613742565b60405180910390fd5b5b60018214610ac8576040517f08c379a0000000000000000000000000000000000000000000000000000000008152600401610abf906137aa565b60405180910390fd5b6003831115610b0c576040517f08c379a0000000000000000000000000000000000000000000000000000000008152600401610b0390613812565b60405180910390fd5b5f8484604051602001610b20929190613653565b60405160208183030381529060405280519060200120905060065f8281526020019081526020015f205f9054906101000a900460ff1615610b96576040517f08c379a0000000000000000000000000000000000000000000000000000000008152600401610b8d906138a0565b60405180910390fd5b600160065f8381526020019081526020015f205f6101000a81548160ff0219169083151502179055505f610bc9856114b8565b9050610bd78682868661153a565b600160045f8381526020019081526020015f205f6101000a81548160ff0219169083151502179055507f032bc66be43dbccb7487781d168eb7bda224628a3b2c3388bdf69b532a3a161181604051610c2f91906124f5565b60405180910390a1505050505050565b610c476112ea565b8060099081610c5691906134f8565b5050565b610c626112ea565b610c6b5f6115cf565b565b5f61271082610c7c91906138eb565b9050919050565b5f60035f9054906101000a900473ffffffffffffffffffffffffffffffffffffffff16905090565b5f61271082610cba919061391b565b9050919050565b610cd3610ccc611397565b8383611692565b5050565b610cdf6112ea565b60018314610d22576040517f08c379a0000000000000000000000000000000000000000000000000000000008152600401610d19906137aa565b60405180910390fd5b6003841115610d66576040517f08c379a0000000000000000000000000000000000000000000000000000000008152600401610d5d90613812565b60405180910390fd5b5f8585604051602001610d7a929190613653565b60405160208183030381529060405280519060200120905060065f8281526020019081526020015f205f9054906101000a900460ff1615610df0576040517f08c379a0000000000000000000000000000000000000000000000000000000008152600401610de7906138a0565b60405180910390fd5b600160065f8381526020019081526020015f205f6101000a81548160ff0219169083151502179055505f610e23866114b8565b90508260075f8381526020019081526020015f209081610e4391906134f8565b50610e508782878761153a565b600160045f8381526020019081526020015f205f6101000a81548160ff0219169083151502179055507f032bc66be43dbccb7487781d168eb7bda224628a3b2c3388bdf69b532a3a161181604051610ea891906124f5565b60405180910390a150505050505050565b5f610ec382611371565b610f02576040517f08c379a0000000000000000000000000000000000000000000000000000000008152600401610ef990613995565b60405180910390fd5b60045f8381526020019081526020015f205f9054906101000a900460ff169050919050565b610f2f6112ea565b8060089081610f3e91906134f8565b5050565b5f60015f8473ffffffffffffffffffffffffffffffffffffffff1673ffffffffffffffffffffffffffffffffffffffff1681526020019081526020015f205f8373ffffffffffffffffffffffffffffffffffffffff1673ffffffffffffffffffffffffffffffffffffffff1681526020019081526020015f205f9054906101000a900460ff16905092915050565b5f610fd9611397565b90508073ffffffffffffffffffffffffffffffffffffffff168673ffffffffffffffffffffffffffffffffffffffff161415801561101e575061101c8682610f42565b155b156110625780866040517fe237d9220000000000000000000000000000000000000000000000000000000081526004016110599291906135c7565b60405180910390fd5b61106f86868686866117fb565b505050505050565b61107f6112ea565b5f73ffffffffffffffffffffffffffffffffffffffff168173ffffffffffffffffffffffffffffffffffffffff16036110ef575f6040517f1e4fbdf70000000000000000000000000000000000000000000000000000000081526004016110e69190612d3a565b60405180910390fd5b6110f8816115cf565b50565b5f7fd9b67a26000000000000000000000000000000000000000000000000000000007bffffffffffffffffffffffffffffffffffffffffffffffffffffffff1916827bffffffffffffffffffffffffffffffffffffffffffffffffffffffff191614806111c557507f0e89341c000000000000000000000000000000000000000000000000000000007bffffffffffffffffffffffffffffffffffffffffffffffffffffffff1916827bffffffffffffffffffffffffffffffffffffffffffffffffffffffff1916145b806111d557506111d482611901565b5b9050919050565b5f5f82426040516020016111f19291906139b3565b604051602081830303815290604052805190602001205f1c9050600481611218919061391b565b915050919050565b60605f600161122e8461196a565b0190505f8167ffffffffffffffff81111561124c5761124b612684565b5b6040519080825280601f01601f19166020018201604052801561127e5781602001600182028036833780820191505090505b5090505f82602083010190505b6001156112df578080600190039150507f3031323334353637383961626364656600000000000000000000000000000000600a86061a8153600a85816112d4576112d36138be565b5b0494505f850361128b575b819350505050919050565b6112f2611397565b73ffffffffffffffffffffffffffffffffffffffff16611310610c83565b73ffffffffffffffffffffffffffffffffffffffff161461136f57611333611397565b6040517f118cdaa70000000000000000000000000000000000000000000000000000000081526004016113669190612d3a565b60405180910390fd5b565b5f60045f8381526020019081526020015f205f9054906101000a900460ff169050919050565b5f33905090565b5f73ffffffffffffffffffffffffffffffffffffffff168473ffffffffffffffffffffffffffffffffffffffff160361140e575f6040517f57f447ce0000000000000000000000000000000000000000000000000000000081526004016114059190612d3a565b60405180910390fd5b5f73ffffffffffffffffffffffffffffffffffffffff168573ffffffffffffffffffffffffffffffffffffffff160361147e575f6040517f01a835140000000000000000000000000000000000000000000000000000000081526004016114759190612d3a565b60405180910390fd5b61148b8585858585611abb565b5050505050565b5f60208202602084010151905092915050565b5f60208202602084010151905092915050565b5f60028214806114c85750600382145b156115245760055f8381526020019081526020015f205f8154809291906114ee906139de565b919050555060055f8381526020019081526020015f2054612710836115139190613a25565b61151d9190612f93565b9050611535565b612710826115329190613a25565b90505b919050565b5f73ffffffffffffffffffffffffffffffffffffffff168473ffffffffffffffffffffffffffffffffffffffff16036115aa575f6040517f57f447ce0000000000000000000000000000000000000000000000000000000081526004016115a19190612d3a565b60405180910390fd5b5f5f6115b68585611b67565b915091506115c75f87848487611abb565b505050505050565b5f60035f9054906101000a900473ffffffffffffffffffffffffffffffffffffffff1690508160035f6101000a81548173ffffffffffffffffffffffffffffffffffffffff021916908373ffffffffffffffffffffffffffffffffffffffff1602179055508173ffffffffffffffffffffffffffffffffffffffff168173ffffffffffffffffffffffffffffffffffffffff167f8be0079c531659141344cd1fd0a4f28419497f9722a3daafe3b4186f6b6457e060405160405180910390a35050565b5f73ffffffffffffffffffffffffffffffffffffffff168273ffffffffffffffffffffffffffffffffffffffff1603611702575f6040517fced3e1000000000000000000000000000000000000000000000000000000000081526004016116f99190612d3a565b60405180910390fd5b8060015f8573ffffffffffffffffffffffffffffffffffffffff1673ffffffffffffffffffffffffffffffffffffffff1681526020019081526020015f205f8473ffffffffffffffffffffffffffffffffffffffff1673ffffffffffffffffffffffffffffffffffffffff1681526020019081526020015f205f6101000a81548160ff0219169083151502179055508173ffffffffffffffffffffffffffffffffffffffff168373ffffffffffffffffffffffffffffffffffffffff167f17307eab39ab6107e8899845ad3d59bd9653f200f220920489ca2b5937696c31836040516117ee91906125a8565b60405180910390a3505050565b5f73ffffffffffffffffffffffffffffffffffffffff168473ffffffffffffffffffffffffffffffffffffffff160361186b575f6040517f57f447ce0000000000000000000000000000000000000000000000000000000081526004016118629190612d3a565b60405180910390fd5b5f73ffffffffffffffffffffffffffffffffffffffff168573ffffffffffffffffffffffffffffffffffffffff16036118db575f6040517f01a835140000000000000000000000000000000000000000000000000000000081526004016118d29190612d3a565b60405180910390fd5b5f5f6118e78585611b67565b915091506118f88787848487611abb565b50505050505050565b5f7f01ffc9a7000000000000000000000000000000000000000000000000000000007bffffffffffffffffffffffffffffffffffffffffffffffffffffffff1916827bffffffffffffffffffffffffffffffffffffffffffffffffffffffff1916149050919050565b5f5f5f90507a184f03e93ff9f4daa797ed6e38ed64bf6a1f01000000000000000083106119c6577a184f03e93ff9f4daa797ed6e38ed64bf6a1f01000000000000000083816119bc576119bb6138be565b5b0492506040810190505b6d04ee2d6d415b85acef81000000008310611a03576d04ee2d6d415b85acef810000000083816119f9576119f86138be565b5b0492506020810190505b662386f26fc100008310611a3257662386f26fc100008381611a2857611a276138be565b5b0492506010810190505b6305f5e1008310611a5b576305f5e1008381611a5157611a506138be565b5b0492506008810190505b6127108310611a80576127108381611a7657611a756138be565b5b0492506004810190505b60648310611aa35760648381611a9957611a986138be565b5b0492506002810190505b600a8310611ab2576001810190505b80915050919050565b611ac785858585611b97565b5f73ffffffffffffffffffffffffffffffffffffffff168473ffffffffffffffffffffffffffffffffffffffff1614611b60575f611b03611397565b90506001845103611b4f575f611b225f866114a590919063ffffffff16565b90505f611b385f866114a590919063ffffffff16565b9050611b48838989858589611d19565b5050611b5e565b611b5d818787878787611ec8565b5b505b5050505050565b60608060405191506001825283602083015260408201905060018152826020820152604081016040529250929050565b5f73ffffffffffffffffffffffffffffffffffffffff168473ffffffffffffffffffffffffffffffffffffffff1614158015611bff57505f73ffffffffffffffffffffffffffffffffffffffff168373ffffffffffffffffffffffffffffffffffffffff1614155b15611c3f576040517f08c379a0000000000000000000000000000000000000000000000000000000008152600401611c3690613ab0565b60405180910390fd5b5f73ffffffffffffffffffffffffffffffffffffffff168473ffffffffffffffffffffffffffffffffffffffff1614611d07575f5f90505b8251811015611d055760045f848381518110611c9657611c956136a5565b5b602002602001015181526020019081526020015f205f9054906101000a900460ff1615611cf8576040517f08c379a0000000000000000000000000000000000000000000000000000000008152600401611cef90613ab0565b60405180910390fd5b8080600101915050611c77565b505b611d1384848484612077565b50505050565b5f8473ffffffffffffffffffffffffffffffffffffffff163b1115611ec0578373ffffffffffffffffffffffffffffffffffffffff1663f23a6e6187878686866040518663ffffffff1660e01b8152600401611d79959493929190613b20565b6020604051808303815f875af1925050508015611db457506040513d601f19601f82011682018060405250810190611db19190613b8c565b60015b611e35573d805f8114611de2576040519150601f19603f3d011682016040523d82523d5f602084013e611de7565b606091505b505f815103611e2d57846040517f57f447ce000000000000000000000000000000000000000000000000000000008152600401611e249190612d3a565b60405180910390fd5b805160208201fd5b63f23a6e6160e01b7bffffffffffffffffffffffffffffffffffffffffffffffffffffffff1916817bffffffffffffffffffffffffffffffffffffffffffffffffffffffff191614611ebe57846040517f57f447ce000000000000000000000000000000000000000000000000000000008152600401611eb59190612d3a565b60405180910390fd5b505b505050505050565b5f8473ffffffffffffffffffffffffffffffffffffffff163b111561206f578373ffffffffffffffffffffffffffffffffffffffff1663bc197c8187878686866040518663ffffffff1660e01b8152600401611f28959493929190613bb7565b6020604051808303815f875af1925050508015611f6357506040513d601f19601f82011682018060405250810190611f609190613b8c565b60015b611fe4573d805f8114611f91576040519150601f19603f3d011682016040523d82523d5f602084013e611f96565b606091505b505f815103611fdc57846040517f57f447ce000000000000000000000000000000000000000000000000000000008152600401611fd39190612d3a565b60405180910390fd5b805160208201fd5b63bc197c8160e01b7bffffffffffffffffffffffffffffffffffffffffffffffffffffffff1916817bffffffffffffffffffffffffffffffffffffffffffffffffffffffff19161461206d57846040517f57f447ce0000000000000000000000000000000000000000000000000000000081526004016120649190612d3a565b60405180910390fd5b505b505050505050565b80518251146120c157815181516040517f5b0599910000000000000000000000000000000000000000000000000000000081526004016120b892919061367e565b60405180910390fd5b5f6120ca611397565b90505f5f90505b83518110156122c9575f6120ee82866114a590919063ffffffff16565b90505f61210483866114a590919063ffffffff16565b90505f73ffffffffffffffffffffffffffffffffffffffff168873ffffffffffffffffffffffffffffffffffffffff1614612227575f5f5f8481526020019081526020015f205f8a73ffffffffffffffffffffffffffffffffffffffff1673ffffffffffffffffffffffffffffffffffffffff1681526020019081526020015f20549050818110156121d357888183856040517f03dee4c50000000000000000000000000000000000000000000000000000000081526004016121ca9493929190613c1d565b60405180910390fd5b8181035f5f8581526020019081526020015f205f8b73ffffffffffffffffffffffffffffffffffffffff1673ffffffffffffffffffffffffffffffffffffffff1681526020019081526020015f2081905550505b5f73ffffffffffffffffffffffffffffffffffffffff168773ffffffffffffffffffffffffffffffffffffffff16146122bc57805f5f8481526020019081526020015f205f8973ffffffffffffffffffffffffffffffffffffffff1673ffffffffffffffffffffffffffffffffffffffff1681526020019081526020015f205f8282546122b49190612f93565b925050819055505b50508060010190506120d1565b506001835103612384575f6122e75f856114a590919063ffffffff16565b90505f6122fd5f856114a590919063ffffffff16565b90508573ffffffffffffffffffffffffffffffffffffffff168773ffffffffffffffffffffffffffffffffffffffff168473ffffffffffffffffffffffffffffffffffffffff167fc3d58168c5ae7397731d063d5bbf3d657854427343f4c083240f7aacaa2d0f62858560405161237592919061367e565b60405180910390a45050612403565b8373ffffffffffffffffffffffffffffffffffffffff168573ffffffffffffffffffffffffffffffffffffffff168273ffffffffffffffffffffffffffffffffffffffff167f4a39dc06d4c0dbc64b70af90fd698a233a518aa5d07e595d983b8c0526c8f7fb86866040516123fa929190613c60565b60405180910390a45b5050505050565b5f604051905090565b5f5ffd5b5f5ffd5b5f73ffffffffffffffffffffffffffffffffffffffff82169050919050565b5f6124448261241b565b9050919050565b6124548161243a565b811461245e575f5ffd5b50565b5f8135905061246f8161244b565b92915050565b5f819050919050565b61248781612475565b8114612491575f5ffd5b50565b5f813590506124a28161247e565b92915050565b5f5f604083850312156124be576124bd612413565b5b5f6124cb85828601612461565b92505060206124dc85828601612494565b9150509250929050565b6124ef81612475565b82525050565b5f6020820190506125085f8301846124e6565b92915050565b5f7fffffffff0000000000000000000000000000000000000000000000000000000082169050919050565b6125428161250e565b811461254c575f5ffd5b50565b5f8135905061255d81612539565b92915050565b5f6020828403121561257857612577612413565b5b5f6125858482850161254f565b91505092915050565b5f8115159050919050565b6125a28161258e565b82525050565b5f6020820190506125bb5f830184612599565b92915050565b5f602082840312156125d6576125d5612413565b5b5f6125e384828501612494565b91505092915050565b5f81519050919050565b5f82825260208201905092915050565b8281835e5f83830152505050565b5f601f19601f8301169050919050565b5f61262e826125ec565b61263881856125f6565b9350612648818560208601612606565b61265181612614565b840191505092915050565b5f6020820190508181035f8301526126748184612624565b905092915050565b5f5ffd5b5f5ffd5b7f4e487b71000000000000000000000000000000000000000000000000000000005f52604160045260245ffd5b6126ba82612614565b810181811067ffffffffffffffff821117156126d9576126d8612684565b5b80604052505050565b5f6126eb61240a565b90506126f782826126b1565b919050565b5f67ffffffffffffffff82111561271657612715612684565b5b61271f82612614565b9050602081019050919050565b828183375f83830152505050565b5f61274c612747846126fc565b6126e2565b90508281526020810184848401111561276857612767612680565b5b61277384828561272c565b509392505050565b5f82601f83011261278f5761278e61267c565b5b813561279f84826020860161273a565b91505092915050565b5f5f604083850312156127be576127bd612413565b5b5f6127cb85828601612494565b925050602083013567ffffffffffffffff8111156127ec576127eb612417565b5b6127f88582860161277b565b9150509250929050565b5f67ffffffffffffffff82111561281c5761281b612684565b5b602082029050602081019050919050565b5f5ffd5b5f61284361283e84612802565b6126e2565b905080838252602082019050602084028301858111156128665761286561282d565b5b835b8181101561288f578061287b8882612494565b845260208401935050602081019050612868565b5050509392505050565b5f82601f8301126128ad576128ac61267c565b5b81356128bd848260208601612831565b91505092915050565b5f67ffffffffffffffff8211156128e0576128df612684565b5b6128e982612614565b9050602081019050919050565b5f612908612903846128c6565b6126e2565b90508281526020810184848401111561292457612923612680565b5b61292f84828561272c565b509392505050565b5f82601f83011261294b5761294a61267c565b5b813561295b8482602086016128f6565b91505092915050565b5f5f5f5f5f60a0868803121561297d5761297c612413565b5b5f61298a88828901612461565b955050602061299b88828901612461565b945050604086013567ffffffffffffffff8111156129bc576129bb612417565b5b6129c888828901612899565b935050606086013567ffffffffffffffff8111156129e9576129e8612417565b5b6129f588828901612899565b925050608086013567ffffffffffffffff811115612a1657612a15612417565b5b612a2288828901612937565b9150509295509295909350565b612a388161250e565b82525050565b5f602082019050612a515f830184612a2f565b92915050565b5f67ffffffffffffffff821115612a7157612a70612684565b5b602082029050602081019050919050565b5f612a94612a8f84612a57565b6126e2565b90508083825260208201905060208402830185811115612ab757612ab661282d565b5b835b81811015612ae05780612acc8882612461565b845260208401935050602081019050612ab9565b5050509392505050565b5f82601f830112612afe57612afd61267c565b5b8135612b0e848260208601612a82565b91505092915050565b5f5f60408385031215612b2d57612b2c612413565b5b5f83013567ffffffffffffffff811115612b4a57612b49612417565b5b612b5685828601612aea565b925050602083013567ffffffffffffffff811115612b7757612b76612417565b5b612b8385828601612899565b9150509250929050565b5f81519050919050565b5f82825260208201905092915050565b5f819050602082019050919050565b612bbf81612475565b82525050565b5f612bd08383612bb6565b60208301905092915050565b5f602082019050919050565b5f612bf282612b8d565b612bfc8185612b97565b9350612c0783612ba7565b805f5b83811015612c37578151612c1e8882612bc5565b9750612c2983612bdc565b925050600181019050612c0a565b5085935050505092915050565b5f6020820190508181035f830152612c5c8184612be8565b905092915050565b5f5f5f5f60808587031215612c7c57612c7b612413565b5b5f612c8987828801612461565b9450506020612c9a87828801612494565b9350506040612cab87828801612494565b925050606085013567ffffffffffffffff811115612ccc57612ccb612417565b5b612cd887828801612937565b91505092959194509250565b5f60208284031215612cf957612cf8612413565b5b5f82013567ffffffffffffffff811115612d1657612d15612417565b5b612d228482850161277b565b91505092915050565b612d348161243a565b82525050565b5f602082019050612d4d5f830184612d2b565b92915050565b612d5c8161258e565b8114612d66575f5ffd5b50565b5f81359050612d7781612d53565b92915050565b5f5f60408385031215612d9357612d92612413565b5b5f612da085828601612461565b9250506020612db185828601612d69565b9150509250929050565b5f5f5f5f5f60a08688031215612dd457612dd3612413565b5b5f612de188828901612461565b9550506020612df288828901612494565b9450506040612e0388828901612494565b935050606086013567ffffffffffffffff811115612e2457612e23612417565b5b612e3088828901612937565b925050608086013567ffffffffffffffff811115612e5157612e50612417565b5b612e5d8882890161277b565b9150509295509295909350565b5f5f60408385031215612e8057612e7f612413565b5b5f612e8d85828601612461565b9250506020612e9e85828601612461565b9150509250929050565b5f5f5f5f5f60a08688031215612ec157612ec0612413565b5b5f612ece88828901612461565b9550506020612edf88828901612461565b9450506040612ef088828901612494565b9350506060612f0188828901612494565b925050608086013567ffffffffffffffff811115612f2257612f21612417565b5b612f2e88828901612937565b9150509295509295909350565b5f60208284031215612f5057612f4f612413565b5b5f612f5d84828501612461565b91505092915050565b7f4e487b71000000000000000000000000000000000000000000000000000000005f52601160045260245ffd5b5f612f9d82612475565b9150612fa883612475565b9250828201905080821115612fc057612fbf612f66565b5b92915050565b7f4e487b71000000000000000000000000000000000000000000000000000000005f52602260045260245ffd5b5f600282049050600182168061300a57607f821691505b60208210810361301d5761301c612fc6565b5b50919050565b5f81905092915050565b5f819050815f5260205f209050919050565b5f815461304b81612ff3565b6130558186613023565b9450600182165f811461306f5760018114613084576130b6565b60ff19831686528115158202860193506130b6565b61308d8561302d565b5f5b838110156130ae5781548189015260018201915060208101905061308f565b838801955050505b50505092915050565b7f322f0000000000000000000000000000000000000000000000000000000000005f82015250565b5f6130f3600283613023565b91506130fe826130bf565b600282019050919050565b5f613113826125ec565b61311d8185613023565b935061312d818560208601612606565b80840191505092915050565b7f2d000000000000000000000000000000000000000000000000000000000000005f82015250565b5f61316d600183613023565b915061317882613139565b600182019050919050565b7f2e6a736f6e0000000000000000000000000000000000000000000000000000005f82015250565b5f6131b7600583613023565b91506131c282613183565b600582019050919050565b5f6131d8828661303f565b91506131e3826130e7565b91506131ef8285613109565b91506131fa82613161565b91506132068284613109565b9150613211826131ab565b9150819050949350505050565b7f2f000000000000000000000000000000000000000000000000000000000000005f82015250565b5f613252600183613023565b915061325d8261321e565b600182019050919050565b5f613273828661303f565b915061327f8285613109565b915061328a82613246565b91506132968284613109565b91506132a1826131ab565b9150819050949350505050565b5f6132b9828561303f565b91506132c58284613109565b91506132d0826131ab565b91508190509392505050565b7f5342543a205552492073657420666f72206e6f6e6578697374656e7420746f6b5f8201527f656e000000000000000000000000000000000000000000000000000000000000602082015250565b5f6133366022836125f6565b9150613341826132dc565b604082019050919050565b5f6020820190508181035f8301526133638161332a565b9050919050565b5f6020601f8301049050919050565b5f82821b905092915050565b5f600883026133b47fffffffffffffffffffffffffffffffffffffffffffffffffffffffffffffffff82613379565b6133be8683613379565b95508019841693508086168417925050509392505050565b5f819050919050565b5f6133f96133f46133ef84612475565b6133d6565b612475565b9050919050565b5f819050919050565b613412836133df565b61342661341e82613400565b848454613385565b825550505050565b5f5f905090565b61343d61342e565b613448818484613409565b505050565b5b8181101561346b576134605f82613435565b60018101905061344e565b5050565b601f8211156134b0576134818161302d565b61348a8461336a565b81016020851015613499578190505b6134ad6134a58561336a565b83018261344d565b50505b505050565b5f82821c905092915050565b5f6134d05f19846008026134b5565b1980831691505092915050565b5f6134e883836134c1565b9150826002028217905092915050565b613501826125ec565b67ffffffffffffffff81111561351a57613519612684565b5b6135248254612ff3565b61352f82828561346f565b5f60209050601f831160018114613560575f841561354e578287015190505b61355885826134dd565b8655506135bf565b601f19841661356e8661302d565b5f5b8281101561359557848901518255600182019150602085019450602081019050613570565b868310156135b257848901516135ae601f8916826134c1565b8355505b6001600288020188555050505b505050505050565b5f6040820190506135da5f830185612d2b565b6135e76020830184612d2b565b9392505050565b5f8160601b9050919050565b5f613604826135ee565b9050919050565b5f613615826135fa565b9050919050565b61362d6136288261243a565b61360b565b82525050565b5f819050919050565b61364d61364882612475565b613633565b82525050565b5f61365e828561361c565b60148201915061366e828461363c565b6020820191508190509392505050565b5f6040820190506136915f8301856124e6565b61369e60208301846124e6565b9392505050565b7f4e487b71000000000000000000000000000000000000000000000000000000005f52603260045260245ffd5b7f5342543a206f6e6c79206f776e65722063616e2073657420726563697069656e5f8201527f7400000000000000000000000000000000000000000000000000000000000000602082015250565b5f61372c6021836125f6565b9150613737826136d2565b604082019050919050565b5f6020820190508181035f83015261375981613720565b9050919050565b7f5342543a20616d6f756e74206d757374206265203100000000000000000000005f82015250565b5f6137946015836125f6565b915061379f82613760565b602082019050919050565b5f6020820190508181035f8301526137c181613788565b9050919050565b7f5342543a20696e76616c6964207465616d2049440000000000000000000000005f82015250565b5f6137fc6014836125f6565b9150613807826137c8565b602082019050919050565b5f6020820190508181035f830152613829816137f0565b9050919050565b7f5342543a20616c7265616479206d696e74656420666f722074686973207465615f8201527f6d00000000000000000000000000000000000000000000000000000000000000602082015250565b5f61388a6021836125f6565b915061389582613830565b604082019050919050565b5f6020820190508181035f8301526138b78161387e565b9050919050565b7f4e487b71000000000000000000000000000000000000000000000000000000005f52601260045260245ffd5b5f6138f582612475565b915061390083612475565b9250826139105761390f6138be565b5b828204905092915050565b5f61392582612475565b915061393083612475565b9250826139405761393f6138be565b5b828206905092915050565b7f5342543a20717565727920666f72206e6f6e6578697374656e7420746f6b656e5f82015250565b5f61397f6020836125f6565b915061398a8261394b565b602082019050919050565b5f6020820190508181035f8301526139ac81613973565b9050919050565b5f6139be828561363c565b6020820191506139ce828461363c565b6020820191508190509392505050565b5f6139e882612475565b91507fffffffffffffffffffffffffffffffffffffffffffffffffffffffffffffffff8203613a1a57613a19612f66565b5b600182019050919050565b5f613a2f82612475565b9150613a3a83612475565b9250828202613a4881612475565b91508282048414831517613a5f57613a5e612f66565b5b5092915050565b7f5342543a20746f6b656e206973206c6f636b65640000000000000000000000005f82015250565b5f613a9a6014836125f6565b9150613aa582613a66565b602082019050919050565b5f6020820190508181035f830152613ac781613a8e565b9050919050565b5f81519050919050565b5f82825260208201905092915050565b5f613af282613ace565b613afc8185613ad8565b9350613b0c818560208601612606565b613b1581612614565b840191505092915050565b5f60a082019050613b335f830188612d2b565b613b406020830187612d2b565b613b4d60408301866124e6565b613b5a60608301856124e6565b8181036080830152613b6c8184613ae8565b90509695505050505050565b5f81519050613b8681612539565b92915050565b5f60208284031215613ba157613ba0612413565b5b5f613bae84828501613b78565b91505092915050565b5f60a082019050613bca5f830188612d2b565b613bd76020830187612d2b565b8181036040830152613be98186612be8565b90508181036060830152613bfd8185612be8565b90508181036080830152613c118184613ae8565b90509695505050505050565b5f608082019050613c305f830187612d2b565b613c3d60208301866124e6565b613c4a60408301856124e6565b613c5760608301846124e6565b95945050505050565b5f6040820190508181035f830152613c788185612be8565b90508181036020830152613c8c8184612be8565b9050939250505056fea2646970667358221220e1c252d292fa413dc113f4d360be97531224b05321ec84f467e2b55a081652c564736f6c634300081e0033","linkReferences":{}},"methodIdentifiers":{"IID_IERC5192()":"358c4d80","REVEAL_TIMESTAMP()":"18e20a38","balanceOf(address,uint256)":"00fdd58e","balanceOfBatch(address[],uint256[])":"4e1273f4","getNextSerialNumber(uint256)":"062c17dd","getSerialNumber(uint256)":"9bd905f8","getTeamId(uint256)":"79428570","hasMintedForTeam(address,uint256)":"499fca18","isApprovedForAll(address,address)":"e985e9c5","isRevealed()":"54214f69","locked(uint256)":"b45a3c0e","mintLocked(address,uint256,uint256,bytes)":"54577987","mintLockedWithURI(address,uint256,uint256,bytes,string)":"b1141f63","owner()":"8da5cb5b","renounceOwnership()":"715018a6","safeBatchTransferFrom(address,address,uint256[],uint256[],bytes)":"2eb2c2d6","safeTransferFrom(address,address,uint256,uint256,bytes)":"f242432a","setApprovalForAll(address,bool)":"a22cb465","setRevealedBaseURI(string)":"6e83843a","setTokenURI(uint256,string)":"162094c4","setUnrevealedBaseURI(string)":"e185a2cc","supportsInterface(bytes4)":"01ffc9a7","transferOwnership(address)":"f2fde38b","uri(uint256)":"0e89341c"},"id":40}