{"abi":[{"type":"constructor","inputs":[{"name":"initialOwner","type":"address","internalType":"address"}],"stateMutability":"nonpayable"},{"type":"function","name":"IID_IERC5192","inputs":[],"outputs":[{"name":"","type":"bytes4","internalType":"bytes4"}],"stateMutability":"view"},{"type":"function","name":"REVEAL_TIMESTAMP","inputs":[],"outputs":[{"name":"","type":"uint256","internalType":"uint256"}],"stateMutability":"view"},{"type":"function","name":"balanceOf","inputs":[{"name":"account","type":"address","internalType":"address"},{"name":"id","type":"uint256","internalType":"uint256"}],"outputs":[{"name":"","type":"uint256","internalType":"uint256"}],"stateMutability":"view"},{"type":"function","name":"balanceOfBatch","inputs":[{"name":"accounts","type":"address[]","internalType":"address[]"},{"name":"ids","type":"uint256[]","internalType":"uint256[]"}],"outputs":[{"name":"","type":"uint256[]","internalType":"uint256[]"}],"stateMutability":"view"},{"type":"function","name":"getNextSerialNumber","inputs":[{"name":"team","type":"uint8","internalType":"enum TsukuroSBT.Team"}],"outputs":[{"name":"","type":"uint256","internalType":"uint256"}],"stateMutability":"view"},{"type":"function","name":"getSerialNumber","inputs":[{"name":"tokenId","type":"uint256","internalType":"uint256"}],"outputs":[{"name":"","type":"uint256","internalType":"uint256"}],"stateMutability":"pure"},{"type":"function","name":"getTeamId","inputs":[{"name":"tokenId","type":"uint256","internalType":"uint256"}],"outputs":[{"name":"","type":"uint256","internalType":"uint256"}],"stateMutability":"pure"},{"type":"function","name":"hasMintedForTeam","inputs":[{"name":"account","type":"address","internalType":"address"},{"name":"team","type":"uint8","internalType":"enum TsukuroSBT.Team"}],"outputs":[{"name":"","type":"bool","internalType":"bool"}],"stateMutability":"view"},{"type":"function","name":"isApprovedForAll","inputs":[{"name":"account","type":"address","internalType":"address"},{"name":"operator","type":"address","internalType":"address"}],"outputs":[{"name":"","type":"bool","internalType":"bool"}],"stateMutability":"view"},{"type":"function","name":"isRevealed","inputs":[],"outputs":[{"name":"","type":"bool","internalType":"bool"}],"stateMutability":"view"},{"type":"function","name":"locked","inputs":[{"name":"tokenId","type":"uint256","internalType":"uint256"}],"outputs":[{"name":"","type":"bool","internalType":"bool"}],"stateMutability":"view"},{"type":"function","name":"mintLocked","inputs":[{"name":"to","type":"address","internalType":"address"},{"name":"team","type":"uint8","internalType":"enum TsukuroSBT.Team"},{"name":"amount","type":"uint256","internalType":"uint256"},{"name":"data","type":"bytes","internalType":"bytes"}],"outputs":[],"stateMutability":"nonpayable"},{"type":"function","name":"mintLockedWithURI","inputs":[{"name":"to","type":"address","internalType":"address"},{"name":"team","type":"uint8","internalType":"enum TsukuroSBT.Team"},{"name":"amount","type":"uint256","internalType":"uint256"},{"name":"data","type":"bytes","internalType":"bytes"},{"name":"tokenURI_","type":"string","internalType":"string"}],"outputs":[],"stateMutability":"nonpayable"},{"type":"function","name":"owner","inputs":[],"outputs":[{"name":"","type":"address","internalType":"address"}],"stateMutability":"view"},{"type":"function","name":"renounceOwnership","inputs":[],"outputs":[],"stateMutability":"nonpayable"},{"type":"function","name":"safeBatchTransferFrom","inputs":[{"name":"from","type":"address","internalType":"address"},{"name":"to","type":"address","internalType":"address"},{"name":"ids","type":"uint256[]","internalType":"uint256[]"},{"name":"values","type":"uint256[]","internalType":"uint256[]"},{"name":"data","type":"bytes","internalType":"bytes"}],"outputs":[],"stateMutability":"nonpayable"},{"type":"function","name":"safeTransferFrom","inputs":[{"name":"from","type":"address","internalType":"address"},{"name":"to","type":"address","internalType":"address"},{"name":"id","type":"uint256","internalType":"uint256"},{"name":"value","type":"uint256","internalType":"uint256"},{"name":"data","type":"bytes","internalType":"bytes"}],"outputs":[],"stateMutability":"nonpayable"},{"type":"function","name":"setApprovalForAll","inputs":[{"name":"operator","type":"address","internalType":"address"},{"name":"approved","type":"bool","internalType":"bool"}],"outputs":[],"stateMutability":"nonpayable"},{"type":"function","name":"setRevealedBaseURI","inputs":[{"name":"baseURI","type":"string","internalType":"string"}],"outputs":[],"stateMutability":"nonpayable"},{"type":"function","name":"setTokenURI","inputs":[{"name":"tokenId","type":"uint256","internalType":"uint256"},{"name":"tokenURI_","type":"string","internalType":"string"}],"outputs":[],"stateMutability":"nonpayable"},{"type":"function","name":"setUnrevealedBaseURI","inputs":[{"name":"baseURI","type":"string","internalType":"string"}],"outputs":[],"stateMutability":"nonpayable"},{"type":"function","name":"supportsInterface","inputs":[{"name":"interfaceId","type":"bytes4","internalType":"bytes4"}],"outputs":[{"name":"","type":"bool","internalType":"bool"}],"stateMutability":"view"},{"type":"function","name":"transferOwnership","inputs":[{"name":"newOwner","type":"address","internalType":"address"}],"outputs":[],"stateMutability":"nonpayable"},{"type":"function","name":"uri","inputs":[{"name":"tokenId","type":"uint256","internalType":"uint256"}],"outputs":[{"name":"","type":"string","internalType":"string"}],"stateMutability":"view"},{"type":"event","name":"ApprovalForAll","inputs":[{"name":"account","type":"address","indexed":true,"internalType":"address"},{"name":"operator","type":"address","indexed":true,"internalType":"address"},{"name":"approved","type":"bool","indexed":false,"internalType":"bool"}],"anonymous":false},{"type":"event","name":"Locked","inputs":[{"name":"tokenId","type":"uint256","indexed":false,"internalType":"uint256"}],"anonymous":false},{"type":"event","name":"OwnershipTransferred","inputs":[{"name":"previousOwner","type":"address","indexed":true,"internalType":"address"},{"name":"newOwner","type":"address","indexed":true,"internalType":"address"}],"anonymous":false},{"type":"event","name":"TransferBatch","inputs":[{"name":"operator","type":"address","indexed":true,"internalType":"address"},{"name":"from","type":"address","indexed":true,"internalType":"address"},{"name":"to","type":"address","indexed":true,"internalType":"address"},{"name":"ids","type":"uint256[]","indexed":false,"internalType":"uint256[]"},{"name":"values","type":"uint256[]","indexed":false,"internalType":"uint256[]"}],"anonymous":false},{"type":"event","name":"TransferSingle","inputs":[{"name":"operator","type":"address","indexed":true,"internalType":"address"},{"name":"from","type":"address","indexed":true,"internalType":"address"},{"name":"to","type":"address","indexed":true,"internalType":"address"},{"name":"id","type":"uint256","indexed":false,"internalType":"uint256"},{"name":"value","type":"uint256","indexed":false,"internalType":"uint256"}],"anonymous":false},{"type":"event","name":"URI","inputs":[{"name":"value","type":"string","indexed":false,"internalType":"string"},{"name":"id","type":"uint256","indexed":true,"internalType":"uint256"}],"anonymous":false},{"type":"event","name":"Unlocked","inputs":[{"name":"tokenId","type":"uint256","indexed":false,"internalType":"uint256"}],"anonymous":false},{"type":"error","name":"ERC1155InsufficientBalance","inputs":[{"name":"sender","type":"address","internalType":"address"},{"name":"balance","type":"uint256","internalType":"uint256"},{"name":"needed","type":"uint256","internalType":"uint256"},{"name":"tokenId","type":"uint256","internalType":"uint256"}]},{"type":"error","name":"ERC1155InvalidApprover","inputs":[{"name":"approver","type":"address","internalType":"address"}]},{"type":"error","name":"ERC1155InvalidArrayLength","inputs":[{"name":"idsLength","type":"uint256","internalType":"uint256"},{"name":"valuesLength","type":"uint256","internalType":"uint256"}]},{"type":"error","name":"ERC1155InvalidOperator","inputs":[{"name":"operator","type":"address","internalType":"address"}]},{"type":"error","name":"ERC1155InvalidReceiver","inputs":[{"name":"receiver","type":"address","internalType":"address"}]},{"type":"error","name":"ERC1155InvalidSender","inputs":[{"name":"sender","type":"address","internalType":"address"}]},{"type":"error","name":"ERC1155MissingApprovalForAll","inputs":[{"name":"operator","type":"address","internalType":"address"},{"name":"owner","type":"address","internalType":"address"}]},{"type":"error","name":"OwnableInvalidOwner","inputs":[{"name":"owner","type":"address","internalType":"address"}]},{"type":"error","name":"OwnableUnauthorizedAccount","inputs":[{"name":"account","type":"address","internalType":"address"}]}],"bytecode":{"object":"0x608060405234801561000f575f5ffd5b506040516144db3803806144db8339818101604052810190610031919061020b565b8060405180602001604052805f815250610050816100d760201b60201c565b505f73ffffffffffffffffffffffffffffffffffffffff168173ffffffffffffffffffffffffffffffffffffffff16036100c1575f6040517f1e4fbdf70000000000000000000000000000000000000000000000000000000081526004016100b89190610245565b60405180910390fd5b6100d0816100ea60201b60201c565b505061056a565b80600290816100e6919061049b565b5050565b5f60035f9054906101000a900473ffffffffffffffffffffffffffffffffffffffff1690508160035f6101000a81548173ffffffffffffffffffffffffffffffffffffffff021916908373ffffffffffffffffffffffffffffffffffffffff1602179055508173ffffffffffffffffffffffffffffffffffffffff168173ffffffffffffffffffffffffffffffffffffffff167f8be0079c531659141344cd1fd0a4f28419497f9722a3daafe3b4186f6b6457e060405160405180910390a35050565b5f5ffd5b5f73ffffffffffffffffffffffffffffffffffffffff82169050919050565b5f6101da826101b1565b9050919050565b6101ea816101d0565b81146101f4575f5ffd5b50565b5f81519050610205816101e1565b92915050565b5f602082840312156102205761021f6101ad565b5b5f61022d848285016101f7565b91505092915050565b61023f816101d0565b82525050565b5f6020820190506102585f830184610236565b92915050565b5f81519050919050565b7f4e487b71000000000000000000000000000000000000000000000000000000005f52604160045260245ffd5b7f4e487b71000000000000000000000000000000000000000000000000000000005f52602260045260245ffd5b5f60028204905060018216806102d957607f821691505b6020821081036102ec576102eb610295565b5b50919050565b5f819050815f5260205f209050919050565b5f6020601f8301049050919050565b5f82821b905092915050565b5f6008830261034e7fffffffffffffffffffffffffffffffffffffffffffffffffffffffffffffffff82610313565b6103588683610313565b95508019841693508086168417925050509392505050565b5f819050919050565b5f819050919050565b5f61039c61039761039284610370565b610379565b610370565b9050919050565b5f819050919050565b6103b583610382565b6103c96103c1826103a3565b84845461031f565b825550505050565b5f5f905090565b6103e06103d1565b6103eb8184846103ac565b505050565b5b8181101561040e576104035f826103d8565b6001810190506103f1565b5050565b601f82111561045357610424816102f2565b61042d84610304565b8101602085101561043c578190505b61045061044885610304565b8301826103f0565b50505b505050565b5f82821c905092915050565b5f6104735f1984600802610458565b1980831691505092915050565b5f61048b8383610464565b9150826002028217905092915050565b6104a48261025e565b67ffffffffffffffff8111156104bd576104bc610268565b5b6104c782546102c2565b6104d2828285610412565b5f60209050601f831160018114610503575f84156104f1578287015190505b6104fb8582610480565b865550610562565b601f198416610511866102f2565b5f5b8281101561053857848901518255600182019150602085019450602081019050610513565b868310156105555784890151610551601f891682610464565b8355505b6001600288020188555050505b505050505050565b613f64806105775f395ff3fe608060405234801561000f575f5ffd5b5060043610610155575f3560e01c8063715018a6116100c1578063b45a3c0e1161007a578063b45a3c0e146103e7578063e185a2cc14610417578063e985e9c514610433578063ee89b3ea14610463578063f242432a1461047f578063f2fde38b1461049b57610155565b8063715018a61461032757806379428570146103315780638da5cb5b146103615780639bd905f81461037f578063a22cb465146103af578063ab160232146103cb57610155565b806328c8d0a31161011357806328c8d0a3146102535780632eb2c2d614610283578063358c4d801461029f5780634e1273f4146102bd57806354214f69146102ed5780636e83843a1461030b57610155565b8062fdd58e1461015957806301ffc9a714610189578063089a213b146101b95780630e89341c146101e9578063162094c41461021957806318e20a3814610235575b5f5ffd5b610173600480360381019061016e9190612677565b6104b7565b60405161018091906126c4565b60405180910390f35b6101a3600480360381019061019e9190612732565b61050c565b6040516101b09190612777565b60405180910390f35b6101d360048036038101906101ce91906127b3565b61056c565b6040516101e091906126c4565b60405180910390f35b61020360048036038101906101fe91906127de565b6105a9565b6040516102109190612879565b60405180910390f35b610233600480360381019061022e91906129c5565b610797565b005b61023d61080a565b60405161024a91906126c4565b60405180910390f35b61026d60048036038101906102689190612a1f565b610812565b60405161027a9190612777565b60405180910390f35b61029d60048036038101906102989190612bbf565b61087d565b005b6102a7610924565b6040516102b49190612c99565b60405180910390f35b6102d760048036038101906102d29190612d72565b61092f565b6040516102e49190612e9f565b60405180910390f35b6102f5610a39565b6040516103029190612777565b60405180910390f35b61032560048036038101906103209190612ebf565b610a47565b005b61032f610a62565b005b61034b600480360381019061034691906127de565b610a75565b60405161035891906126c4565b60405180910390f35b610369610a8b565b6040516103769190612f15565b60405180910390f35b610399600480360381019061039491906127de565b610ab3565b6040516103a691906126c4565b60405180910390f35b6103c960048036038101906103c49190612f58565b610ac9565b005b6103e560048036038101906103e09190612f96565b610adf565b005b61040160048036038101906103fc91906127de565b610d58565b60405161040e9190612777565b60405180910390f35b610431600480360381019061042c9190612ebf565b610dc6565b005b61044d60048036038101906104489190613045565b610de1565b60405161045a9190612777565b60405180910390f35b61047d60048036038101906104789190613083565b610e6f565b005b61049960048036038101906104949190613103565b611169565b005b6104b560048036038101906104b09190613196565b611210565b005b5f5f5f8381526020019081526020015f205f8473ffffffffffffffffffffffffffffffffffffffff1673ffffffffffffffffffffffffffffffffffffffff1681526020019081526020015f2054905092915050565b5f63b45a3c0e60e01b7bffffffffffffffffffffffffffffffffffffffffffffffffffffffff1916827bffffffffffffffffffffffffffffffffffffffffffffffffffffffff19161480610565575061056482611294565b5b9050919050565b5f5f826003811115610581576105806131c1565b5b9050600160055f8381526020019081526020015f20546105a1919061321b565b915050919050565b60605f60085f8481526020019081526020015f2080546105c89061327b565b9050111561066f5760085f8381526020019081526020015f2080546105ec9061327b565b80601f01602080910402602001604051908101604052809291908181526020018280546106189061327b565b80156106635780601f1061063a57610100808354040283529160200191610663565b820191905f5260205f20905b81548152906001019060200180831161064657829003601f168201915b50505050509050610792565b5f61067983610a75565b90505f81600381111561068f5761068e6131c1565b5b90505f61069b85610ab3565b90506106a5610a39565b1561076157600160038111156106be576106bd6131c1565b5b8260038111156106d1576106d06131c1565b5b03610722575f6106e086611375565b9050600a6106ed8361138f565b6106f68361138f565b60405160200161070893929190613455565b604051602081830303815290604052945050505050610792565b600a61072d8461138f565b6107368361138f565b604051602001610748939291906134f0565b6040516020818303038152906040529350505050610792565b600961076c8461138f565b60405160200161077d929190613536565b60405160208183030381529060405293505050505b919050565b61079f611459565b6107a8826114e0565b6107e7576040517f08c379a00000000000000000000000000000000000000000000000000000000081526004016107de906135d4565b60405180910390fd5b8060085f8481526020019081526020015f2090816108059190613780565b505050565b6369553a7081565b5f5f826003811115610827576108266131c1565b5b90505f848260405160200161083d9291906138b4565b60405160208183030381529060405280519060200120905060065f8281526020019081526020015f205f9054906101000a900460ff169250505092915050565b5f610886611506565b90508073ffffffffffffffffffffffffffffffffffffffff168673ffffffffffffffffffffffffffffffffffffffff16141580156108cb57506108c98682610de1565b155b1561090f5780866040517fe237d9220000000000000000000000000000000000000000000000000000000081526004016109069291906138df565b60405180910390fd5b61091c868686868661150d565b505050505050565b63b45a3c0e60e01b81565b6060815183511461097b57815183516040517f5b059991000000000000000000000000000000000000000000000000000000008152600401610972929190613906565b60405180910390fd5b5f835167ffffffffffffffff811115610997576109966128a1565b5b6040519080825280602002602001820160405280156109c55781602001602082028036833780820191505090505b5090505f5f90505b8451811015610a2e57610a046109ec828761160190919063ffffffff16565b6109ff838761161490919063ffffffff16565b6104b7565b828281518110610a1757610a1661392d565b5b6020026020010181815250508060010190506109cd565b508091505092915050565b5f6369553a70421015905090565b610a4f611459565b80600a9081610a5e9190613780565b5050565b610a6a611459565b610a735f611627565b565b5f61271082610a849190613987565b9050919050565b5f60035f9054906101000a900473ffffffffffffffffffffffffffffffffffffffff16905090565b5f61271082610ac291906139b7565b9050919050565b610adb610ad4611506565b83836116ea565b5050565b610ae7611459565b60018314610b2a576040517f08c379a0000000000000000000000000000000000000000000000000000000008152600401610b2190613a31565b60405180910390fd5b5f846003811115610b3e57610b3d6131c1565b5b90506003811115610b84576040517f08c379a0000000000000000000000000000000000000000000000000000000008152600401610b7b90613a99565b60405180910390fd5b5f8682604051602001610b989291906138b4565b60405160208183030381529060405280519060200120905060065f8281526020019081526020015f205f9054906101000a900460ff1615610c0e576040517f08c379a0000000000000000000000000000000000000000000000000000000008152600401610c0590613b27565b60405180910390fd5b600160065f8381526020019081526020015f205f6101000a81548160ff0219169083151502179055505f610c4187611853565b905060016003811115610c5757610c566131c1565b5b876003811115610c6a57610c696131c1565b5b03610cc3575f818942604051602001610c8593929190613b45565b604051602081830303815290604052805190602001205f1c9050600481610cac91906139b7565b60075f8481526020019081526020015f2081905550505b8360085f8381526020019081526020015f209081610ce19190613780565b50610cee88828888611935565b600160045f8381526020019081526020015f205f6101000a81548160ff0219169083151502179055507f032bc66be43dbccb7487781d168eb7bda224628a3b2c3388bdf69b532a3a161181604051610d4691906126c4565b60405180910390a15050505050505050565b5f610d62826114e0565b610da1576040517f08c379a0000000000000000000000000000000000000000000000000000000008152600401610d9890613bcb565b60405180910390fd5b60045f8381526020019081526020015f205f9054906101000a900460ff169050919050565b610dce611459565b8060099081610ddd9190613780565b5050565b5f60015f8473ffffffffffffffffffffffffffffffffffffffff1673ffffffffffffffffffffffffffffffffffffffff1681526020019081526020015f205f8373ffffffffffffffffffffffffffffffffffffffff1673ffffffffffffffffffffffffffffffffffffffff1681526020019081526020015f205f9054906101000a900460ff16905092915050565b610e77610a8b565b73ffffffffffffffffffffffffffffffffffffffff163373ffffffffffffffffffffffffffffffffffffffff1614610f18573373ffffffffffffffffffffffffffffffffffffffff168473ffffffffffffffffffffffffffffffffffffffff1614610f17576040517f08c379a0000000000000000000000000000000000000000000000000000000008152600401610f0e90613c59565b60405180910390fd5b5b60018214610f5b576040517f08c379a0000000000000000000000000000000000000000000000000000000008152600401610f5290613a31565b60405180910390fd5b5f836003811115610f6f57610f6e6131c1565b5b90506003811115610fb5576040517f08c379a0000000000000000000000000000000000000000000000000000000008152600401610fac90613a99565b60405180910390fd5b5f8582604051602001610fc99291906138b4565b60405160208183030381529060405280519060200120905060065f8281526020019081526020015f205f9054906101000a900460ff161561103f576040517f08c379a000000000000000000000000000000000000000000000000000000000815260040161103690613b27565b60405180910390fd5b600160065f8381526020019081526020015f205f6101000a81548160ff0219169083151502179055505f61107286611853565b905060016003811115611088576110876131c1565b5b86600381111561109b5761109a6131c1565b5b036110f4575f8188426040516020016110b693929190613b45565b604051602081830303815290604052805190602001205f1c90506004816110dd91906139b7565b60075f8481526020019081526020015f2081905550505b61110087828787611935565b600160045f8381526020019081526020015f205f6101000a81548160ff0219169083151502179055507f032bc66be43dbccb7487781d168eb7bda224628a3b2c3388bdf69b532a3a16118160405161115891906126c4565b60405180910390a150505050505050565b5f611172611506565b90508073ffffffffffffffffffffffffffffffffffffffff168673ffffffffffffffffffffffffffffffffffffffff16141580156111b757506111b58682610de1565b155b156111fb5780866040517fe237d9220000000000000000000000000000000000000000000000000000000081526004016111f29291906138df565b60405180910390fd5b61120886868686866119ca565b505050505050565b611218611459565b5f73ffffffffffffffffffffffffffffffffffffffff168173ffffffffffffffffffffffffffffffffffffffff1603611288575f6040517f1e4fbdf700000000000000000000000000000000000000000000000000000000815260040161127f9190612f15565b60405180910390fd5b61129181611627565b50565b5f7fd9b67a26000000000000000000000000000000000000000000000000000000007bffffffffffffffffffffffffffffffffffffffffffffffffffffffff1916827bffffffffffffffffffffffffffffffffffffffffffffffffffffffff1916148061135e57507f0e89341c000000000000000000000000000000000000000000000000000000007bffffffffffffffffffffffffffffffffffffffffffffffffffffffff1916827bffffffffffffffffffffffffffffffffffffffffffffffffffffffff1916145b8061136e575061136d82611ad0565b5b9050919050565b5f60075f8381526020019081526020015f20549050919050565b60605f600161139d84611b39565b0190505f8167ffffffffffffffff8111156113bb576113ba6128a1565b5b6040519080825280601f01601f1916602001820160405280156113ed5781602001600182028036833780820191505090505b5090505f82602083010190505b60011561144e578080600190039150507f3031323334353637383961626364656600000000000000000000000000000000600a86061a8153600a85816114435761144261395a565b5b0494505f85036113fa575b819350505050919050565b611461611506565b73ffffffffffffffffffffffffffffffffffffffff1661147f610a8b565b73ffffffffffffffffffffffffffffffffffffffff16146114de576114a2611506565b6040517f118cdaa70000000000000000000000000000000000000000000000000000000081526004016114d59190612f15565b60405180910390fd5b565b5f60045f8381526020019081526020015f205f9054906101000a900460ff169050919050565b5f33905090565b5f73ffffffffffffffffffffffffffffffffffffffff168473ffffffffffffffffffffffffffffffffffffffff160361157d575f6040517f57f447ce0000000000000000000000000000000000000000000000000000000081526004016115749190612f15565b60405180910390fd5b5f73ffffffffffffffffffffffffffffffffffffffff168573ffffffffffffffffffffffffffffffffffffffff16036115ed575f6040517f01a835140000000000000000000000000000000000000000000000000000000081526004016115e49190612f15565b60405180910390fd5b6115fa8585858585611c8a565b5050505050565b5f60208202602084010151905092915050565b5f60208202602084010151905092915050565b5f60035f9054906101000a900473ffffffffffffffffffffffffffffffffffffffff1690508160035f6101000a81548173ffffffffffffffffffffffffffffffffffffffff021916908373ffffffffffffffffffffffffffffffffffffffff1602179055508173ffffffffffffffffffffffffffffffffffffffff168173ffffffffffffffffffffffffffffffffffffffff167f8be0079c531659141344cd1fd0a4f28419497f9722a3daafe3b4186f6b6457e060405160405180910390a35050565b5f73ffffffffffffffffffffffffffffffffffffffff168273ffffffffffffffffffffffffffffffffffffffff160361175a575f6040517fced3e1000000000000000000000000000000000000000000000000000000000081526004016117519190612f15565b60405180910390fd5b8060015f8573ffffffffffffffffffffffffffffffffffffffff1673ffffffffffffffffffffffffffffffffffffffff1681526020019081526020015f205f8473ffffffffffffffffffffffffffffffffffffffff1673ffffffffffffffffffffffffffffffffffffffff1681526020019081526020015f205f6101000a81548160ff0219169083151502179055508173ffffffffffffffffffffffffffffffffffffffff168373ffffffffffffffffffffffffffffffffffffffff167f17307eab39ab6107e8899845ad3d59bd9653f200f220920489ca2b5937696c31836040516118469190612777565b60405180910390a3505050565b5f5f826003811115611868576118676131c1565b5b90506001600381111561187e5761187d6131c1565b5b836003811115611891576118906131c1565b5b14806118c15750600260038111156118ac576118ab6131c1565b5b8360038111156118bf576118be6131c1565b5b145b1561191e5760055f8281526020019081526020015f205f8154809291906118e790613c77565b919050555060055f8281526020019081526020015f20546127108261190c9190613cbe565b611916919061321b565b915050611930565b6127108161192c9190613cbe565b9150505b919050565b5f73ffffffffffffffffffffffffffffffffffffffff168473ffffffffffffffffffffffffffffffffffffffff16036119a5575f6040517f57f447ce00000000000000000000000000000000000000000000000000000000815260040161199c9190612f15565b60405180910390fd5b5f5f6119b18585611d36565b915091506119c25f87848487611c8a565b505050505050565b5f73ffffffffffffffffffffffffffffffffffffffff168473ffffffffffffffffffffffffffffffffffffffff1603611a3a575f6040517f57f447ce000000000000000000000000000000000000000000000000000000008152600401611a319190612f15565b60405180910390fd5b5f73ffffffffffffffffffffffffffffffffffffffff168573ffffffffffffffffffffffffffffffffffffffff1603611aaa575f6040517f01a83514000000000000000000000000000000000000000000000000000000008152600401611aa19190612f15565b60405180910390fd5b5f5f611ab68585611d36565b91509150611ac78787848487611c8a565b50505050505050565b5f7f01ffc9a7000000000000000000000000000000000000000000000000000000007bffffffffffffffffffffffffffffffffffffffffffffffffffffffff1916827bffffffffffffffffffffffffffffffffffffffffffffffffffffffff1916149050919050565b5f5f5f90507a184f03e93ff9f4daa797ed6e38ed64bf6a1f0100000000000000008310611b95577a184f03e93ff9f4daa797ed6e38ed64bf6a1f0100000000000000008381611b8b57611b8a61395a565b5b0492506040810190505b6d04ee2d6d415b85acef81000000008310611bd2576d04ee2d6d415b85acef81000000008381611bc857611bc761395a565b5b0492506020810190505b662386f26fc100008310611c0157662386f26fc100008381611bf757611bf661395a565b5b0492506010810190505b6305f5e1008310611c2a576305f5e1008381611c2057611c1f61395a565b5b0492506008810190505b6127108310611c4f576127108381611c4557611c4461395a565b5b0492506004810190505b60648310611c725760648381611c6857611c6761395a565b5b0492506002810190505b600a8310611c81576001810190505b80915050919050565b611c9685858585611d66565b5f73ffffffffffffffffffffffffffffffffffffffff168473ffffffffffffffffffffffffffffffffffffffff1614611d2f575f611cd2611506565b90506001845103611d1e575f611cf15f8661161490919063ffffffff16565b90505f611d075f8661161490919063ffffffff16565b9050611d17838989858589611ee8565b5050611d2d565b611d2c818787878787612097565b5b505b5050505050565b60608060405191506001825283602083015260408201905060018152826020820152604081016040529250929050565b5f73ffffffffffffffffffffffffffffffffffffffff168473ffffffffffffffffffffffffffffffffffffffff1614158015611dce57505f73ffffffffffffffffffffffffffffffffffffffff168373ffffffffffffffffffffffffffffffffffffffff1614155b15611e0e576040517f08c379a0000000000000000000000000000000000000000000000000000000008152600401611e0590613d49565b60405180910390fd5b5f73ffffffffffffffffffffffffffffffffffffffff168473ffffffffffffffffffffffffffffffffffffffff1614611ed6575f5f90505b8251811015611ed45760045f848381518110611e6557611e6461392d565b5b602002602001015181526020019081526020015f205f9054906101000a900460ff1615611ec7576040517f08c379a0000000000000000000000000000000000000000000000000000000008152600401611ebe90613d49565b60405180910390fd5b8080600101915050611e46565b505b611ee284848484612246565b50505050565b5f8473ffffffffffffffffffffffffffffffffffffffff163b111561208f578373ffffffffffffffffffffffffffffffffffffffff1663f23a6e6187878686866040518663ffffffff1660e01b8152600401611f48959493929190613db9565b6020604051808303815f875af1925050508015611f8357506040513d601f19601f82011682018060405250810190611f809190613e25565b60015b612004573d805f8114611fb1576040519150601f19603f3d011682016040523d82523d5f602084013e611fb6565b606091505b505f815103611ffc57846040517f57f447ce000000000000000000000000000000000000000000000000000000008152600401611ff39190612f15565b60405180910390fd5b805160208201fd5b63f23a6e6160e01b7bffffffffffffffffffffffffffffffffffffffffffffffffffffffff1916817bffffffffffffffffffffffffffffffffffffffffffffffffffffffff19161461208d57846040517f57f447ce0000000000000000000000000000000000000000000000000000000081526004016120849190612f15565b60405180910390fd5b505b505050505050565b5f8473ffffffffffffffffffffffffffffffffffffffff163b111561223e578373ffffffffffffffffffffffffffffffffffffffff1663bc197c8187878686866040518663ffffffff1660e01b81526004016120f7959493929190613e50565b6020604051808303815f875af192505050801561213257506040513d601f19601f8201168201806040525081019061212f9190613e25565b60015b6121b3573d805f8114612160576040519150601f19603f3d011682016040523d82523d5f602084013e612165565b606091505b505f8151036121ab57846040517f57f447ce0000000000000000000000000000000000000000000000000000000081526004016121a29190612f15565b60405180910390fd5b805160208201fd5b63bc197c8160e01b7bffffffffffffffffffffffffffffffffffffffffffffffffffffffff1916817bffffffffffffffffffffffffffffffffffffffffffffffffffffffff19161461223c57846040517f57f447ce0000000000000000000000000000000000000000000000000000000081526004016122339190612f15565b60405180910390fd5b505b505050505050565b805182511461229057815181516040517f5b059991000000000000000000000000000000000000000000000000000000008152600401612287929190613906565b60405180910390fd5b5f612299611506565b90505f5f90505b8351811015612498575f6122bd828661161490919063ffffffff16565b90505f6122d3838661161490919063ffffffff16565b90505f73ffffffffffffffffffffffffffffffffffffffff168873ffffffffffffffffffffffffffffffffffffffff16146123f6575f5f5f8481526020019081526020015f205f8a73ffffffffffffffffffffffffffffffffffffffff1673ffffffffffffffffffffffffffffffffffffffff1681526020019081526020015f20549050818110156123a257888183856040517f03dee4c50000000000000000000000000000000000000000000000000000000081526004016123999493929190613eb6565b60405180910390fd5b8181035f5f8581526020019081526020015f205f8b73ffffffffffffffffffffffffffffffffffffffff1673ffffffffffffffffffffffffffffffffffffffff1681526020019081526020015f2081905550505b5f73ffffffffffffffffffffffffffffffffffffffff168773ffffffffffffffffffffffffffffffffffffffff161461248b57805f5f8481526020019081526020015f205f8973ffffffffffffffffffffffffffffffffffffffff1673ffffffffffffffffffffffffffffffffffffffff1681526020019081526020015f205f828254612483919061321b565b925050819055505b50508060010190506122a0565b506001835103612553575f6124b65f8561161490919063ffffffff16565b90505f6124cc5f8561161490919063ffffffff16565b90508573ffffffffffffffffffffffffffffffffffffffff168773ffffffffffffffffffffffffffffffffffffffff168473ffffffffffffffffffffffffffffffffffffffff167fc3d58168c5ae7397731d063d5bbf3d657854427343f4c083240f7aacaa2d0f628585604051612544929190613906565b60405180910390a450506125d2565b8373ffffffffffffffffffffffffffffffffffffffff168573ffffffffffffffffffffffffffffffffffffffff168273ffffffffffffffffffffffffffffffffffffffff167f4a39dc06d4c0dbc64b70af90fd698a233a518aa5d07e595d983b8c0526c8f7fb86866040516125c9929190613ef9565b60405180910390a45b5050505050565b5f604051905090565b5f5ffd5b5f5ffd5b5f73ffffffffffffffffffffffffffffffffffffffff82169050919050565b5f612613826125ea565b9050919050565b61262381612609565b811461262d575f5ffd5b50565b5f8135905061263e8161261a565b92915050565b5f819050919050565b61265681612644565b8114612660575f5ffd5b50565b5f813590506126718161264d565b92915050565b5f5f6040838503121561268d5761268c6125e2565b5b5f61269a85828601612630565b92505060206126ab85828601612663565b9150509250929050565b6126be81612644565b82525050565b5f6020820190506126d75f8301846126b5565b92915050565b5f7fffffffff0000000000000000000000000000000000000000000000000000000082169050919050565b612711816126dd565b811461271b575f5ffd5b50565b5f8135905061272c81612708565b92915050565b5f60208284031215612747576127466125e2565b5b5f6127548482850161271e565b91505092915050565b5f8115159050919050565b6127718161275d565b82525050565b5f60208201905061278a5f830184612768565b92915050565b6004811061279c575f5ffd5b50565b5f813590506127ad81612790565b92915050565b5f602082840312156127c8576127c76125e2565b5b5f6127d58482850161279f565b91505092915050565b5f602082840312156127f3576127f26125e2565b5b5f61280084828501612663565b91505092915050565b5f81519050919050565b5f82825260208201905092915050565b8281835e5f83830152505050565b5f601f19601f8301169050919050565b5f61284b82612809565b6128558185612813565b9350612865818560208601612823565b61286e81612831565b840191505092915050565b5f6020820190508181035f8301526128918184612841565b905092915050565b5f5ffd5b5f5ffd5b7f4e487b71000000000000000000000000000000000000000000000000000000005f52604160045260245ffd5b6128d782612831565b810181811067ffffffffffffffff821117156128f6576128f56128a1565b5b80604052505050565b5f6129086125d9565b905061291482826128ce565b919050565b5f67ffffffffffffffff821115612933576129326128a1565b5b61293c82612831565b9050602081019050919050565b828183375f83830152505050565b5f61296961296484612919565b6128ff565b9050828152602081018484840111156129855761298461289d565b5b612990848285612949565b509392505050565b5f82601f8301126129ac576129ab612899565b5b81356129bc848260208601612957565b91505092915050565b5f5f604083850312156129db576129da6125e2565b5b5f6129e885828601612663565b925050602083013567ffffffffffffffff811115612a0957612a086125e6565b5b612a1585828601612998565b9150509250929050565b5f5f60408385031215612a3557612a346125e2565b5b5f612a4285828601612630565b9250506020612a538582860161279f565b9150509250929050565b5f67ffffffffffffffff821115612a7757612a766128a1565b5b602082029050602081019050919050565b5f5ffd5b5f612a9e612a9984612a5d565b6128ff565b90508083825260208201905060208402830185811115612ac157612ac0612a88565b5b835b81811015612aea5780612ad68882612663565b845260208401935050602081019050612ac3565b5050509392505050565b5f82601f830112612b0857612b07612899565b5b8135612b18848260208601612a8c565b91505092915050565b5f67ffffffffffffffff821115612b3b57612b3a6128a1565b5b612b4482612831565b9050602081019050919050565b5f612b63612b5e84612b21565b6128ff565b905082815260208101848484011115612b7f57612b7e61289d565b5b612b8a848285612949565b509392505050565b5f82601f830112612ba657612ba5612899565b5b8135612bb6848260208601612b51565b91505092915050565b5f5f5f5f5f60a08688031215612bd857612bd76125e2565b5b5f612be588828901612630565b9550506020612bf688828901612630565b945050604086013567ffffffffffffffff811115612c1757612c166125e6565b5b612c2388828901612af4565b935050606086013567ffffffffffffffff811115612c4457612c436125e6565b5b612c5088828901612af4565b925050608086013567ffffffffffffffff811115612c7157612c706125e6565b5b612c7d88828901612b92565b9150509295509295909350565b612c93816126dd565b82525050565b5f602082019050612cac5f830184612c8a565b92915050565b5f67ffffffffffffffff821115612ccc57612ccb6128a1565b5b602082029050602081019050919050565b5f612cef612cea84612cb2565b6128ff565b90508083825260208201905060208402830185811115612d1257612d11612a88565b5b835b81811015612d3b5780612d278882612630565b845260208401935050602081019050612d14565b5050509392505050565b5f82601f830112612d5957612d58612899565b5b8135612d69848260208601612cdd565b91505092915050565b5f5f60408385031215612d8857612d876125e2565b5b5f83013567ffffffffffffffff811115612da557612da46125e6565b5b612db185828601612d45565b925050602083013567ffffffffffffffff811115612dd257612dd16125e6565b5b612dde85828601612af4565b9150509250929050565b5f81519050919050565b5f82825260208201905092915050565b5f819050602082019050919050565b612e1a81612644565b82525050565b5f612e2b8383612e11565b60208301905092915050565b5f602082019050919050565b5f612e4d82612de8565b612e578185612df2565b9350612e6283612e02565b805f5b83811015612e92578151612e798882612e20565b9750612e8483612e37565b925050600181019050612e65565b5085935050505092915050565b5f6020820190508181035f830152612eb78184612e43565b905092915050565b5f60208284031215612ed457612ed36125e2565b5b5f82013567ffffffffffffffff811115612ef157612ef06125e6565b5b612efd84828501612998565b91505092915050565b612f0f81612609565b82525050565b5f602082019050612f285f830184612f06565b92915050565b612f378161275d565b8114612f41575f5ffd5b50565b5f81359050612f5281612f2e565b92915050565b5f5f60408385031215612f6e57612f6d6125e2565b5b5f612f7b85828601612630565b9250506020612f8c85828601612f44565b9150509250929050565b5f5f5f5f5f60a08688031215612faf57612fae6125e2565b5b5f612fbc88828901612630565b9550506020612fcd8882890161279f565b9450506040612fde88828901612663565b935050606086013567ffffffffffffffff811115612fff57612ffe6125e6565b5b61300b88828901612b92565b925050608086013567ffffffffffffffff81111561302c5761302b6125e6565b5b61303888828901612998565b9150509295509295909350565b5f5f6040838503121561305b5761305a6125e2565b5b5f61306885828601612630565b925050602061307985828601612630565b9150509250929050565b5f5f5f5f6080858703121561309b5761309a6125e2565b5b5f6130a887828801612630565b94505060206130b98782880161279f565b93505060406130ca87828801612663565b925050606085013567ffffffffffffffff8111156130eb576130ea6125e6565b5b6130f787828801612b92565b91505092959194509250565b5f5f5f5f5f60a0868803121561311c5761311b6125e2565b5b5f61312988828901612630565b955050602061313a88828901612630565b945050604061314b88828901612663565b935050606061315c88828901612663565b925050608086013567ffffffffffffffff81111561317d5761317c6125e6565b5b61318988828901612b92565b9150509295509295909350565b5f602082840312156131ab576131aa6125e2565b5b5f6131b884828501612630565b91505092915050565b7f4e487b71000000000000000000000000000000000000000000000000000000005f52602160045260245ffd5b7f4e487b71000000000000000000000000000000000000000000000000000000005f52601160045260245ffd5b5f61322582612644565b915061323083612644565b9250828201905080821115613248576132476131ee565b5b92915050565b7f4e487b71000000000000000000000000000000000000000000000000000000005f52602260045260245ffd5b5f600282049050600182168061329257607f821691505b6020821081036132a5576132a461324e565b5b50919050565b5f81905092915050565b5f819050815f5260205f209050919050565b5f81546132d38161327b565b6132dd81866132ab565b9450600182165f81146132f7576001811461330c5761333e565b60ff198316865281151582028601935061333e565b613315856132b5565b5f5b8381101561333657815481890152600182019150602081019050613317565b838801955050505b50505092915050565b7f312f0000000000000000000000000000000000000000000000000000000000005f82015250565b5f61337b6002836132ab565b915061338682613347565b600282019050919050565b5f61339b82612809565b6133a581856132ab565b93506133b5818560208601612823565b80840191505092915050565b7f2d000000000000000000000000000000000000000000000000000000000000005f82015250565b5f6133f56001836132ab565b9150613400826133c1565b600182019050919050565b7f2e6a736f6e0000000000000000000000000000000000000000000000000000005f82015250565b5f61343f6005836132ab565b915061344a8261340b565b600582019050919050565b5f61346082866132c7565b915061346b8261336f565b91506134778285613391565b9150613482826133e9565b915061348e8284613391565b915061349982613433565b9150819050949350505050565b7f2f000000000000000000000000000000000000000000000000000000000000005f82015250565b5f6134da6001836132ab565b91506134e5826134a6565b600182019050919050565b5f6134fb82866132c7565b91506135078285613391565b9150613512826134ce565b915061351e8284613391565b915061352982613433565b9150819050949350505050565b5f61354182856132c7565b915061354d8284613391565b915061355882613433565b91508190509392505050565b7f5342543a205552492073657420666f72206e6f6e6578697374656e7420746f6b5f8201527f656e000000000000000000000000000000000000000000000000000000000000602082015250565b5f6135be602283612813565b91506135c982613564565b604082019050919050565b5f6020820190508181035f8301526135eb816135b2565b9050919050565b5f6020601f8301049050919050565b5f82821b905092915050565b5f6008830261363c7fffffffffffffffffffffffffffffffffffffffffffffffffffffffffffffffff82613601565b6136468683613601565b95508019841693508086168417925050509392505050565b5f819050919050565b5f61368161367c61367784612644565b61365e565b612644565b9050919050565b5f819050919050565b61369a83613667565b6136ae6136a682613688565b84845461360d565b825550505050565b5f5f905090565b6136c56136b6565b6136d0818484613691565b505050565b5b818110156136f3576136e85f826136bd565b6001810190506136d6565b5050565b601f82111561373857613709816132b5565b613712846135f2565b81016020851015613721578190505b61373561372d856135f2565b8301826136d5565b50505b505050565b5f82821c905092915050565b5f6137585f198460080261373d565b1980831691505092915050565b5f6137708383613749565b9150826002028217905092915050565b61378982612809565b67ffffffffffffffff8111156137a2576137a16128a1565b5b6137ac825461327b565b6137b78282856136f7565b5f60209050601f8311600181146137e8575f84156137d6578287015190505b6137e08582613765565b865550613847565b601f1984166137f6866132b5565b5f5b8281101561381d578489015182556001820191506020850194506020810190506137f8565b8683101561383a5784890151613836601f891682613749565b8355505b6001600288020188555050505b505050505050565b5f8160601b9050919050565b5f6138658261384f565b9050919050565b5f6138768261385b565b9050919050565b61388e61388982612609565b61386c565b82525050565b5f819050919050565b6138ae6138a982612644565b613894565b82525050565b5f6138bf828561387d565b6014820191506138cf828461389d565b6020820191508190509392505050565b5f6040820190506138f25f830185612f06565b6138ff6020830184612f06565b9392505050565b5f6040820190506139195f8301856126b5565b61392660208301846126b5565b9392505050565b7f4e487b71000000000000000000000000000000000000000000000000000000005f52603260045260245ffd5b7f4e487b71000000000000000000000000000000000000000000000000000000005f52601260045260245ffd5b5f61399182612644565b915061399c83612644565b9250826139ac576139ab61395a565b5b828204905092915050565b5f6139c182612644565b91506139cc83612644565b9250826139dc576139db61395a565b5b828206905092915050565b7f5342543a20616d6f756e74206d757374206265203100000000000000000000005f82015250565b5f613a1b601583612813565b9150613a26826139e7565b602082019050919050565b5f6020820190508181035f830152613a4881613a0f565b9050919050565b7f5342543a20696e76616c6964207465616d2049440000000000000000000000005f82015250565b5f613a83601483612813565b9150613a8e82613a4f565b602082019050919050565b5f6020820190508181035f830152613ab081613a77565b9050919050565b7f5342543a20616c7265616479206d696e74656420666f722074686973207465615f8201527f6d00000000000000000000000000000000000000000000000000000000000000602082015250565b5f613b11602183612813565b9150613b1c82613ab7565b604082019050919050565b5f6020820190508181035f830152613b3e81613b05565b9050919050565b5f613b50828661389d565b602082019150613b60828561387d565b601482019150613b70828461389d565b602082019150819050949350505050565b7f5342543a20717565727920666f72206e6f6e6578697374656e7420746f6b656e5f82015250565b5f613bb5602083612813565b9150613bc082613b81565b602082019050919050565b5f6020820190508181035f830152613be281613ba9565b9050919050565b7f5342543a206f6e6c79206f776e65722063616e2073657420726563697069656e5f8201527f7400000000000000000000000000000000000000000000000000000000000000602082015250565b5f613c43602183612813565b9150613c4e82613be9565b604082019050919050565b5f6020820190508181035f830152613c7081613c37565b9050919050565b5f613c8182612644565b91507fffffffffffffffffffffffffffffffffffffffffffffffffffffffffffffffff8203613cb357613cb26131ee565b5b600182019050919050565b5f613cc882612644565b9150613cd383612644565b9250828202613ce181612644565b91508282048414831517613cf857613cf76131ee565b5b5092915050565b7f5342543a20746f6b656e206973206c6f636b65640000000000000000000000005f82015250565b5f613d33601483612813565b9150613d3e82613cff565b602082019050919050565b5f6020820190508181035f830152613d6081613d27565b9050919050565b5f81519050919050565b5f82825260208201905092915050565b5f613d8b82613d67565b613d958185613d71565b9350613da5818560208601612823565b613dae81612831565b840191505092915050565b5f60a082019050613dcc5f830188612f06565b613dd96020830187612f06565b613de660408301866126b5565b613df360608301856126b5565b8181036080830152613e058184613d81565b90509695505050505050565b5f81519050613e1f81612708565b92915050565b5f60208284031215613e3a57613e396125e2565b5b5f613e4784828501613e11565b91505092915050565b5f60a082019050613e635f830188612f06565b613e706020830187612f06565b8181036040830152613e828186612e43565b90508181036060830152613e968185612e43565b90508181036080830152613eaa8184613d81565b90509695505050505050565b5f608082019050613ec95f830187612f06565b613ed660208301866126b5565b613ee360408301856126b5565b613ef060608301846126b5565b95945050505050565b5f6040820190508181035f830152613f118185612e43565b90508181036020830152613f258184612e43565b9050939250505056fea26469706673582212208aa017eff7e8cc00b841023c631fbab4cc425ed33abb59e072da99d3cc57e47464736f6c634300081e0033","linkReferences":{}},"methodIdentifiers":{"IID_IERC5192()":"358c4d80","REVEAL_TIMESTAMP()":"18e20a38","balanceOf(address,uint256)":"00fdd58e","balanceOfBatch(address[],uint256[])":"4e1273f4","getNextSerialNumber(uint8)":"089a213b","getSerialNumber(uint256)":"9bd905f8","getTeamId(uint256)":"79428570","hasMintedForTeam(address,uint8)":"28c8d0a3","isApprovedForAll(address,address)":"e985e9c5","isRevealed()":"54214f69","locked(uint256)":"b45a3c0e","mintLocked(address,uint8,uint256,bytes)":"ee89b3ea","mintLockedWithURI(address,uint8,uint256,bytes,string)":"ab160232","owner()":"8da5cb5b","renounceOwnership()":"715018a6","safeBatchTransferFrom(address,address,uint256[],uint256[],bytes)":"2eb2c2d6","safeTransferFrom(address,address,uint256,uint256,bytes)":"f242432a","setApprovalForAll(address,bool)":"a22cb465","setRevealedBaseURI(string)":"6e83843a","setTokenURI(uint256,string)":"162094c4","setUnrevealedBaseURI(string)":"e185a2cc","supportsInterface(bytes4)":"01ffc9a7","transferOwnership(address)":"f2fde38b","uri(uint256)":"0e89341c"},"id":42}